{
  "abi": [
    {
      "inputs": [
        {
          "internalType": "contract ChiToken",
          "name": "_chiToken",
          "type": "address"
        }
      ],
      "stateMutability": "nonpayable",
      "type": "constructor"
    },
    {
      "anonymous": false,
      "inputs": [
        {
          "indexed": false,
          "internalType": "address",
          "name": "origin",
          "type": "address"
        },
        {
          "indexed": false,
          "internalType": "address",
          "name": "sendToken",
          "type": "address"
        },
        {
          "indexed": false,
          "internalType": "uint256",
          "name": "sendAmount",
          "type": "uint256"
        },
        {
          "indexed": false,
          "internalType": "address",
          "name": "destination",
          "type": "address"
        }
      ],
      "name": "LogOneWay",
      "type": "event"
    },
    {
      "anonymous": false,
      "inputs": [
        {
          "indexed": false,
          "internalType": "address",
          "name": "origin",
          "type": "address"
        },
        {
          "indexed": false,
          "internalType": "address",
          "name": "sendToken",
          "type": "address"
        },
        {
          "indexed": false,
          "internalType": "uint256",
          "name": "sendAmount",
          "type": "uint256"
        },
        {
          "indexed": false,
          "internalType": "address",
          "name": "destination",
          "type": "address"
        },
        {
          "indexed": false,
          "internalType": "address",
          "name": "receiveToken",
          "type": "address"
        },
        {
          "indexed": false,
          "internalType": "uint256",
          "name": "receiveAmount",
          "type": "uint256"
        },
        {
          "indexed": false,
          "internalType": "address",
          "name": "receiver",
          "type": "address"
        }
      ],
      "name": "LogTwoWay",
      "type": "event"
    },
    {
      "inputs": [
        {
          "internalType": "address",
          "name": "_recipient",
          "type": "address"
        },
        {
          "internalType": "uint256",
          "name": "_chiAmount",
          "type": "uint256"
        }
      ],
      "name": "action",
      "outputs": [],
      "stateMutability": "nonpayable",
      "type": "function"
    },
    {
      "inputs": [],
      "name": "chiToken",
      "outputs": [
        {
          "internalType": "contract ChiToken",
          "name": "",
          "type": "address"
        }
      ],
      "stateMutability": "view",
      "type": "function"
    },
    {
      "inputs": [
        {
          "internalType": "address",
          "name": "_recipient",
          "type": "address"
        },
        {
          "internalType": "uint256",
          "name": "_chiAmount",
          "type": "uint256"
        }
      ],
      "name": "getActionData",
      "outputs": [
        {
          "internalType": "bytes",
          "name": "",
          "type": "bytes"
        }
      ],
      "stateMutability": "pure",
      "type": "function"
    },
    {
      "inputs": [
        {
          "internalType": "uint256",
          "name": "",
          "type": "uint256"
        },
        {
          "internalType": "address",
          "name": "",
          "type": "address"
        },
        {
          "internalType": "bytes",
          "name": "_actionData",
          "type": "bytes"
        },
        {
          "internalType": "enum DataFlow",
          "name": "",
          "type": "uint8"
        },
        {
          "internalType": "uint256",
          "name": "",
          "type": "uint256"
        },
        {
          "internalType": "uint256",
          "name": "",
          "type": "uint256"
        }
      ],
      "name": "termsOk",
      "outputs": [
        {
          "internalType": "string",
          "name": "",
          "type": "string"
        }
      ],
      "stateMutability": "view",
      "type": "function"
    },
    {
      "inputs": [],
      "name": "thisActionAddress",
      "outputs": [
        {
          "internalType": "address",
          "name": "",
          "type": "address"
        }
      ],
      "stateMutability": "view",
      "type": "function"
    }
  ],
  "address": "0xc32e3D81EF2FAA585dD4e02Dee1E5B77AeE9AA25",
  "args": [
    "0xc25b03aB7F4b78De2537710F890F1c2fA03A537F"
  ],
  "bytecode": "0x60c060405234801561001057600080fd5b50604051610b23380380610b2383398101604081905261002f9161004b565b30606090811b6080521b6001600160601b03191660a052610079565b60006020828403121561005c578081fd5b81516001600160a01b0381168114610072578182fd5b9392505050565b60805160601c60a05160601c610a736100b06000398060cc52806101b0528061028d52508061012752806103ed5250610a736000f3fe608060405234801561001057600080fd5b50600436106100575760003560e01c80630c0511351461005c5780632ee610a51461007a5780633406a78c1461008f5780637b9b9348146100af578063eb9e7126146100b7575b600080fd5b6100646100ca565b6040516100719190610783565b60405180910390f35b61008d610088366004610583565b6100ee565b005b6100a261009d366004610583565b610371565b60405161007191906107b0565b6100646103eb565b6100a26100c53660046105ec565b61040f565b7f000000000000000000000000000000000000000000000000000000000000000081565b6040518060400160405280601481526020017320b1ba34b7b721b434a6b4b73a1730b1ba34b7b760611b815250306001600160a01b03167f00000000000000000000000000000000000000000000000000000000000000006001600160a01b031614158160405160200161016291906106c4565b604051602081830303815290604052906101985760405162461bcd60e51b815260040161018f91906107b0565b60405180910390fd5b5060405163140e25ad60e31b81526001600160a01b037f0000000000000000000000000000000000000000000000000000000000000000169063a0712d68906101e59085906004016108ea565b600060405180830381600087803b1580156101ff57600080fd5b505af1925050508015610210575060015b6102765761021c61094d565b80610227575061025e565b8060405160200161023891906106f9565b60408051601f198184030181529082905262461bcd60e51b825261018f916004016107b0565b60405162461bcd60e51b815260040161018f9061080f565b60405163a9059cbb60e01b81526001600160a01b037f0000000000000000000000000000000000000000000000000000000000000000169063a9059cbb906102c49086908690600401610797565b602060405180830381600087803b1580156102de57600080fd5b505af192505050801561030e575060408051601f3d908101601f1916820190925261030b918101906105ad565b60015b61034e5761031a61094d565b806103255750610336565b80604051602001610238919061073e565b60405162461bcd60e51b815260040161018f906107c3565b8061036b5760405162461bcd60e51b815260040161018f9061089f565b50505050565b6060608c8211156103945760405162461bcd60e51b815260040161018f90610857565b604051632ee610a560e01b906103b09085908590602401610797565b60408051601f198184030181529190526020810180516001600160e01b03166001600160e01b03199093169290921790915290505b92915050565b7f000000000000000000000000000000000000000000000000000000000000000081565b606061041b86866104cb565b6001600160e01b031916632ee610a560e01b1461045257604051806060016040528060268152602001610a186026913990506104c0565b600061046260446024888a6108f3565b81019061046f91906105d4565b9050608c81118061047e575080155b156104a4576040518060600160405280602181526020016109f7602191399150506104c0565b50506040805180820190915260028152614f4b60f01b60208201525b979650505050505050565b60006018838360038181106104dc57fe5b909101356001600160f81b03191690911c90506010848460028181106104fe57fe5b909101356001600160f81b03191690911c905060088585600181811061052057fe5b909101356001600160f81b03191690911c9050858560008161053e57fe5b9050013560f81c60f81b6001600160f81b031916171717905092915050565b80356001600160a01b03811681146103e557600080fd5b8035600481106103e557600080fd5b60008060408385031215610595578182fd5b61059f848461055d565b946020939093013593505050565b6000602082840312156105be578081fd5b815180151581146105cd578182fd5b9392505050565b6000602082840312156105e5578081fd5b5035919050565b600080600080600080600060c0888a031215610606578283fd5b873596506106178960208a0161055d565b9550604088013567ffffffffffffffff80821115610633578485fd5b818a018b601f820112610644578586fd5b8035925081831115610654578586fd5b8b6020848301011115610665578586fd5b602001965090945061067c90508960608a01610574565b92506080880135915060a0880135905092959891949750929550565b600081518084526106b081602086016020860161091b565b601f01601f19169290920160200192915050565b600082516106d681846020870161091b565b703a64656c656761746563616c6c4f6e6c7960781b920191825250601101919050565b60007f416374696f6e4368694d696e742e616374696f6e2e6d696e743a0000000000008252825161073181601a85016020870161091b565b91909101601a0192915050565b60007f416374696f6e4368694d696e742e616374696f6e2e7472616e736665723a00008252825161077681601e85016020870161091b565b91909101601e0192915050565b6001600160a01b0391909116815260200190565b6001600160a01b03929092168252602082015260400190565b6000602082526105cd6020830184610698565b6020808252602c908201527f416374696f6e4368694d696e742e616374696f6e2e7472616e736665723a207560408201526b3735b737bbb71032b93937b960a11b606082015260800190565b60208082526028908201527f416374696f6e4368694d696e742e616374696f6e2e6d696e743a20756e6b6e6f6040820152673bb71032b93937b960c11b606082015260800190565b60208082526028908201527f416374696f6e4368694d696e742e676574416374696f6e446174613a206d6178604082015267203134302043484960c01b606082015260800190565b6020808252602b908201527f416374696f6e4368694d696e742e616374696f6e2e7472616e736665723a207560408201526a1b9cdd58d8d95cdcd99d5b60aa1b606082015260800190565b90815260200190565b60008085851115610902578182fd5b8386111561090e578182fd5b5050820193919092039150565b60005b8381101561093657818101518382015260200161091e565b8381111561036b5750506000910152565b60e01c90565b600060443d101561095d576109f3565b600481823e6308c379a06109718251610947565b1461097b576109f3565b6040513d600319016004823e80513d67ffffffffffffffff81602484011181841117156109ab57505050506109f3565b828401915081519250808311156109c557505050506109f3565b503d830160208383010111156109dd575050506109f3565b601f91909101601f191681016020016040529150505b9056fe416374696f6e4368694d696e743a20696e76616c69642063686920616d6f756e74416374696f6e4368694d696e743a20696e76616c696420616374696f6e2073656c6563746f72a2646970667358221220de74398833e3428011260a9df8c7ca263a0d100b343a5569611c8ffa62c705dd64736f6c634300060a0033",
  "contractFilepath": "contracts/ActionChiMint.sol",
  "contractName": "ActionChiMint"
}