{
  "abi": [
    {
      "anonymous": false,
      "inputs": [
        {
          "indexed": false,
          "internalType": "contract GnosisSafeProxy",
          "name": "proxy",
          "type": "address"
        }
      ],
      "name": "ProxyCreation",
      "type": "event"
    },
    {
      "constant": false,
      "inputs": [
        {
          "internalType": "address",
          "name": "masterCopy",
          "type": "address"
        },
        {
          "internalType": "uint256",
          "name": "saltNonce",
          "type": "uint256"
        },
        {
          "internalType": "address",
          "name": "fallbackHandler",
          "type": "address"
        },
        {
          "internalType": "address",
          "name": "to",
          "type": "address"
        },
        {
          "internalType": "uint256",
          "name": "value",
          "type": "uint256"
        },
        {
          "internalType": "bytes",
          "name": "data",
          "type": "bytes"
        },
        {
          "internalType": "enum Enum.Operation",
          "name": "operation",
          "type": "uint8"
        }
      ],
      "name": "createProxyAndExecTransaction",
      "outputs": [
        {
          "internalType": "bool",
          "name": "execTransactionSuccess",
          "type": "bool"
        }
      ],
      "payable": true,
      "stateMutability": "payable",
      "type": "function"
    },
    {
      "constant": true,
      "inputs": [],
      "name": "proxyCreationCode",
      "outputs": [
        {
          "internalType": "bytes",
          "name": "",
          "type": "bytes"
        }
      ],
      "payable": false,
      "stateMutability": "pure",
      "type": "function"
    }
  ],
  "address": "0x1f4Ab3778e3FeB06A3D4702B31CE56a561080986",
  "args": [],
  "solcInputHash": "0xa56b2ebaf6b73536eb6d6f24f15e460e9c4e28443eb79d4de1e3e77e18070271",
  "bytecode": "0x608060405234801561001057600080fd5b50610b4b806100206000396000f3fe6080604052600436106100295760003560e01c8063460868ca1461002e57806353e5d935146100e0575b600080fd5b6100cc600480360360e081101561004457600080fd5b6001600160a01b03823581169260208101359260408201358316926060830135169160808101359181019060c0810160a082013564010000000081111561008a57600080fd5b82018360208201111561009c57600080fd5b803590602001918460018302840111640100000000831117156100be57600080fd5b91935091503560ff1661016a565b604080519115158252519081900360200190f35b3480156100ec57600080fd5b506100f5610920565b6040805160208082528351818301528351919283929083019185019080838360005b8381101561012f578181015183820152602001610117565b50505050905090810190601f16801561015c5780820380516001836020036101000a031916815260200191505b509250505060405180910390f35b60008060606040518060200161017f9061094a565b601f1982820381018352601f9091011660408181526001600160a01b038e16602083810191909152815180840382018152828401909252835191926060019182918501908083835b602083106101e65780518252601f1990920191602091820191016101c7565b51815160209384036101000a600019018019909216911617905285519190930192850191508083835b6020831061022e5780518252601f19909201916020918201910161020f565b6001836020036101000a0380198251168184511680821785525050505050509050019250505060405160208183030381529060405290506000338b60405160200180836001600160a01b03166001600160a01b0316815260200182815260200192505050604051602081830303815290604052805190602001209050808251836020016000f592506001600160a01b038316610307576040805162461bcd60e51b815260206004820152601360248201527218dc99585d194c8818d85b1b0819985a5b1959606a1b604482015290519081900360640190fd5b60408051600180825281830190925260609160208083019080388339019050509050308160008151811061033757fe5b60200260200101906001600160a01b031690816001600160a01b031681525050836001600160a01b031663b63e800d82600160008f60008060006040518863ffffffff1660e01b81526004018080602001888152602001876001600160a01b03166001600160a01b0316815260200180602001876001600160a01b03166001600160a01b03168152602001866001600160a01b03166001600160a01b03168152602001858152602001846001600160a01b03166001600160a01b0316815260200183810383528a818151815260200191508051906020019060200280838360005b83811015610430578181015183820152602001610418565b505050509050018381038252600081526020016020019950505050505050505050600060405180830381600087803b15801561046b57600080fd5b505af115801561047f573d6000803e3d6000fd5b5050505050826001600160a01b0316636a761202348b8b8b8b8b6000806000806000306001600160a01b031660006001604051602001808481526020018381526020018260ff1660ff1660f81b815260010193505050506040516020818303038152906040526040518d63ffffffff1660e01b8152600401808c6001600160a01b03166001600160a01b031681526020018b81526020018060200189600181111561052657fe5b60ff168152602001888152602001878152602001868152602001856001600160a01b03166001600160a01b03168152602001846001600160a01b03166001600160a01b031681526020018060200183810383528c8c828181526020019250808284376000838201819052601f909101601f191690920185810384528651815286516020918201939188019250908190849084905b838110156105d25781810151838201526020016105ba565b50505050905090810190601f1680156105ff5780820380516001836020036101000a031916815260200191505b509d50505050505050505050505050506020604051808303818588803b15801561062857600080fd5b505af115801561063c573d6000803e3d6000fd5b50505050506040513d602081101561065357600080fd5b50519350836106935760405162461bcd60e51b815260040180806020018281038252602f815260200180610abf602f913960400191505060405180910390fd5b60408051600160248201523060448201819052336064808401919091528351808403909101815260849092018352602080830180516001600160e01b031663e318b52b60e01b1781528451918201929092526000818501819052600160f81b606083015284516041818403018152606183019586905263353b090160e11b9095526001600160a01b038816606583018181526085840183905260c5840183905260e58401839052610105840183905261012584018390526101458401839052610165840183905261014060a5850190815286516101a586015286519297636a761202978c979596909587958695869586958695869591946101858201926101c590920191908083838a5b838110156107b557818101518382015260200161079d565b50505050905090810190601f1680156107e25780820380516001836020036101000a031916815260200191505b50838103825284518152845160209182019186019080838360005b838110156108155781810151838201526020016107fd565b50505050905090810190601f1680156108425780820380516001836020036101000a031916815260200191505b509c50505050505050505050505050602060405180830381600087803b15801561086b57600080fd5b505af115801561087f573d6000803e3d6000fd5b505050506040513d602081101561089557600080fd5b50519350836108d55760405162461bcd60e51b8152600401808060200182810382526029815260200180610aee6029913960400191505060405180910390fd5b604080516001600160a01b038516815290517fa38789425dbeee0239e16ff2d2567e31720127fbc6430758c1a4efc6aef29f809181900360200190a150505098975050505050505050565b6060604051806020016109329061094a565b601f1982820381018352601f90910116604052905090565b610167806109588339019056fe608060405234801561001057600080fd5b506040516101673803806101678339818101604052602081101561003357600080fd5b50516001600160a01b038116610094576040517f08c379a00000000000000000000000000000000000000000000000000000000081526004018080602001828103825260248152602001806101436024913960400191505060405180910390fd5b600080546001600160a01b039092166001600160a01b03199092169190911790556080806100c36000396000f3fe60806040526001600160a01b036000541663530ca43760e11b6000351415602a578060005260206000f35b3660008037600080366000845af43d6000803e806046573d6000fd5b3d6000f3fea265627a7a72315820349e0e1e4d129d6af192345f46ba6300c7fb3e1045cf987467491b52b30b7cd764736f6c634300050c0032496e76616c6964206d617374657220636f707920616464726573732070726f766964656443504b466163746f7279437573746f6d2e6372656174652e657865635472616e73616374696f6e3a206661696c656443504b466163746f7279437573746f6d2e6372656174652e737761704f776e65723a206661696c6564a265627a7a72315820493601b9a0ceb9e0dcbde862277219fd71add2edbe25bcd16c7e9ae3cfb16e0864736f6c634300050c0032",
  "devdoc": {
    "methods": {}
  },
  "userdoc": {
    "methods": {}
  },
  "gasEstimates": {
    "creation": {
      "codeDepositCost": "578200",
      "executionCost": "613",
      "totalCost": "578813"
    },
    "external": {
      "createProxyAndExecTransaction(address,uint256,address,address,uint256,bytes,uint8)": "infinite",
      "proxyCreationCode()": "infinite"
    }
  }
}