{
  "abi": [
    {
      "inputs": [
        {
          "internalType": "contract ChiToken",
          "name": "_chiToken",
          "type": "address"
        }
      ],
      "stateMutability": "nonpayable",
      "type": "constructor"
    },
    {
      "anonymous": false,
      "inputs": [
        {
          "indexed": false,
          "internalType": "address",
          "name": "origin",
          "type": "address"
        },
        {
          "indexed": false,
          "internalType": "address",
          "name": "sendToken",
          "type": "address"
        },
        {
          "indexed": false,
          "internalType": "uint256",
          "name": "sendAmount",
          "type": "uint256"
        },
        {
          "indexed": false,
          "internalType": "address",
          "name": "destination",
          "type": "address"
        }
      ],
      "name": "LogOneWay",
      "type": "event"
    },
    {
      "anonymous": false,
      "inputs": [
        {
          "indexed": false,
          "internalType": "address",
          "name": "origin",
          "type": "address"
        },
        {
          "indexed": false,
          "internalType": "address",
          "name": "sendToken",
          "type": "address"
        },
        {
          "indexed": false,
          "internalType": "uint256",
          "name": "sendAmount",
          "type": "uint256"
        },
        {
          "indexed": false,
          "internalType": "address",
          "name": "destination",
          "type": "address"
        },
        {
          "indexed": false,
          "internalType": "address",
          "name": "receiveToken",
          "type": "address"
        },
        {
          "indexed": false,
          "internalType": "uint256",
          "name": "receiveAmount",
          "type": "uint256"
        },
        {
          "indexed": false,
          "internalType": "address",
          "name": "receiver",
          "type": "address"
        }
      ],
      "name": "LogTwoWay",
      "type": "event"
    },
    {
      "inputs": [
        {
          "internalType": "address",
          "name": "_recipient",
          "type": "address"
        },
        {
          "internalType": "uint256",
          "name": "_chiAmount",
          "type": "uint256"
        }
      ],
      "name": "action",
      "outputs": [],
      "stateMutability": "nonpayable",
      "type": "function"
    },
    {
      "inputs": [],
      "name": "chiToken",
      "outputs": [
        {
          "internalType": "contract ChiToken",
          "name": "",
          "type": "address"
        }
      ],
      "stateMutability": "view",
      "type": "function"
    },
    {
      "inputs": [
        {
          "internalType": "address",
          "name": "_recipient",
          "type": "address"
        },
        {
          "internalType": "uint256",
          "name": "_chiAmount",
          "type": "uint256"
        }
      ],
      "name": "getActionData",
      "outputs": [
        {
          "internalType": "bytes",
          "name": "",
          "type": "bytes"
        }
      ],
      "stateMutability": "pure",
      "type": "function"
    },
    {
      "inputs": [
        {
          "internalType": "uint256",
          "name": "",
          "type": "uint256"
        },
        {
          "internalType": "address",
          "name": "",
          "type": "address"
        },
        {
          "internalType": "bytes",
          "name": "_actionData",
          "type": "bytes"
        },
        {
          "internalType": "enum DataFlow",
          "name": "",
          "type": "uint8"
        },
        {
          "internalType": "uint256",
          "name": "",
          "type": "uint256"
        },
        {
          "internalType": "uint256",
          "name": "",
          "type": "uint256"
        }
      ],
      "name": "termsOk",
      "outputs": [
        {
          "internalType": "string",
          "name": "",
          "type": "string"
        }
      ],
      "stateMutability": "view",
      "type": "function"
    },
    {
      "inputs": [],
      "name": "thisActionAddress",
      "outputs": [
        {
          "internalType": "address",
          "name": "",
          "type": "address"
        }
      ],
      "stateMutability": "view",
      "type": "function"
    }
  ],
  "address": "0xda73e97C8d61AAc1aF5606Fbe01E9893eD17EDa3",
  "args": [
    "0x0000000000004946c0e9f43f4dee607b0ef1fa1c"
  ],
  "solcInputHash": "0x1b7fad84695d8fd57abbb87c62fbfe593d1b375608c4bd967d8a392d3f9d2c9c",
  "bytecode": "0x60c060405234801561001057600080fd5b50604051610b22380380610b2283398101604081905261002f9161004b565b30606090811b6080521b6001600160601b03191660a052610079565b60006020828403121561005c578081fd5b81516001600160a01b0381168114610072578182fd5b9392505050565b60805160601c60a05160601c610a726100b06000398060cc52806101b0528061028d52508061012752806103ed5250610a726000f3fe608060405234801561001057600080fd5b50600436106100575760003560e01c80630c0511351461005c5780632ee610a51461007a5780633406a78c1461008f5780637b9b9348146100af578063eb9e7126146100b7575b600080fd5b6100646100ca565b6040516100719190610785565b60405180910390f35b61008d610088366004610583565b6100ee565b005b6100a261009d366004610583565b610371565b60405161007191906107b2565b6100646103eb565b6100a26100c53660046105ec565b61040f565b7f000000000000000000000000000000000000000000000000000000000000000081565b6040518060400160405280601481526020017320b1ba34b7b721b434a6b4b73a1730b1ba34b7b760611b815250306001600160a01b03167f00000000000000000000000000000000000000000000000000000000000000006001600160a01b031614158160405160200161016291906106c6565b604051602081830303815290604052906101985760405162461bcd60e51b815260040161018f91906107b2565b60405180910390fd5b5060405163140e25ad60e31b81526001600160a01b037f0000000000000000000000000000000000000000000000000000000000000000169063a0712d68906101e59085906004016108ec565b600060405180830381600087803b1580156101ff57600080fd5b505af1925050508015610210575060015b6102765761021c61094f565b80610227575061025e565b8060405160200161023891906106fb565b60408051601f198184030181529082905262461bcd60e51b825261018f916004016107b2565b60405162461bcd60e51b815260040161018f90610811565b60405163a9059cbb60e01b81526001600160a01b037f0000000000000000000000000000000000000000000000000000000000000000169063a9059cbb906102c49086908690600401610799565b602060405180830381600087803b1580156102de57600080fd5b505af192505050801561030e575060408051601f3d908101601f1916820190925261030b918101906105ad565b60015b61034e5761031a61094f565b806103255750610336565b806040516020016102389190610740565b60405162461bcd60e51b815260040161018f906107c5565b8061036b5760405162461bcd60e51b815260040161018f906108a1565b50505050565b6060608c8211156103945760405162461bcd60e51b815260040161018f90610859565b604051632ee610a560e01b906103b09085908590602401610799565b60408051601f198184030181529190526020810180516001600160e01b03166001600160e01b03199093169290921790915290505b92915050565b7f000000000000000000000000000000000000000000000000000000000000000081565b606061041b86866104cb565b6001600160e01b031916632ee610a560e01b1461045257604051806060016040528060268152602001610a176026913990506104c0565b600061046260446024888a6108f5565b81019061046f91906105d4565b9050608c81118061047e575080155b156104a4576040518060600160405280602181526020016109f6602191399150506104c0565b50506040805180820190915260028152614f4b60f01b60208201525b979650505050505050565b60006018838360038181106104dc57fe5b909101356001600160f81b03191690911c90506010848460028181106104fe57fe5b909101356001600160f81b03191690911c905060088585600181811061052057fe5b909101356001600160f81b03191690911c9050858560008161053e57fe5b9050013560f81c60f81b6001600160f81b031916171717905092915050565b80356001600160a01b03811681146103e557600080fd5b8035600481106103e557600080fd5b60008060408385031215610595578182fd5b61059f848461055d565b946020939093013593505050565b6000602082840312156105be578081fd5b815180151581146105cd578182fd5b9392505050565b6000602082840312156105e5578081fd5b5035919050565b600080600080600080600060c0888a031215610606578283fd5b873596506106178960208a0161055d565b9550604088013567ffffffffffffffff80821115610633578485fd5b818a0191508a601f830112610646578485fd5b813581811115610654578586fd5b8b6020828501011115610665578586fd5b60208301975080965050505061067e8960608a01610574565b92506080880135915060a0880135905092959891949750929550565b600081518084526106b281602086016020860161091d565b601f01601f19169290920160200192915050565b600082516106d881846020870161091d565b703a64656c656761746563616c6c4f6e6c7960781b920191825250601101919050565b60007f416374696f6e4368694d696e742e616374696f6e2e6d696e743a0000000000008252825161073381601a85016020870161091d565b91909101601a0192915050565b60007f416374696f6e4368694d696e742e616374696f6e2e7472616e736665723a00008252825161077881601e85016020870161091d565b91909101601e0192915050565b6001600160a01b0391909116815260200190565b6001600160a01b03929092168252602082015260400190565b6000602082526105cd602083018461069a565b6020808252602c908201527f416374696f6e4368694d696e742e616374696f6e2e7472616e736665723a207560408201526b3735b737bbb71032b93937b960a11b606082015260800190565b60208082526028908201527f416374696f6e4368694d696e742e616374696f6e2e6d696e743a20756e6b6e6f6040820152673bb71032b93937b960c11b606082015260800190565b60208082526028908201527f416374696f6e4368694d696e742e676574416374696f6e446174613a206d6178604082015267203134302043484960c01b606082015260800190565b6020808252602b908201527f416374696f6e4368694d696e742e616374696f6e2e7472616e736665723a207560408201526a1b9cdd58d8d95cdcd99d5b60aa1b606082015260800190565b90815260200190565b60008085851115610904578182fd5b83861115610910578182fd5b5050820193919092039150565b60005b83811015610938578181015183820152602001610920565b8381111561036b5750506000910152565b60e01c90565b600060443d101561095f576109f2565b600481823e6308c379a06109738251610949565b1461097d576109f2565b6040513d600319016004823e80513d67ffffffffffffffff81602484011181841117156109ad57505050506109f2565b828401925082519150808211156109c757505050506109f2565b503d830160208284010111156109df575050506109f2565b601f01601f191681016020016040529150505b9056fe416374696f6e4368694d696e743a20696e76616c69642063686920616d6f756e74416374696f6e4368694d696e743a20696e76616c696420616374696f6e2073656c6563746f72a264697066735822122032acecf332dd67b7f2f53494e0de42bf3e7c2e54a99c5bdc223377e287ece22864736f6c634300060c0033",
  "devdoc": {
    "details": "Use in conjunction with selfProviderGasLimit Gelato Task config",
    "kind": "dev",
    "methods": {
      "action(address,uint256)": {
        "details": "Call ChaiToken.mint via UserProxy (Delegatecall)"
      },
      "getActionData(address,uint256)": {
        "details": "use this function to encode the data off-chain for the action data field"
      }
    },
    "version": 1
  },
  "userdoc": {
    "kind": "user",
    "methods": {},
    "notice": "This action wraps around ChiToken.mint",
    "version": 1
  },
  "storageLayout": {
    "storage": [],
    "types": null
  },
  "gasEstimates": {
    "creation": {
      "codeDepositCost": "534800",
      "executionCost": "infinite",
      "totalCost": "infinite"
    },
    "external": {
      "action(address,uint256)": "infinite",
      "chiToken()": "infinite",
      "getActionData(address,uint256)": "infinite",
      "termsOk(uint256,address,bytes,uint8,uint256,uint256)": "infinite",
      "thisActionAddress()": "infinite"
    }
  }
}